{
  "transactions": [
    {
      "hash": "0xbb795c1cee020903cf04e72b59431ab0e3864fee6183f9bbc1efb518d8f17b38",
      "transactionType": "CALL",
      "contractName": null,
      "contractAddress": "0x0cac4e3004c452134ed59db4bcb63128d2140ace",
      "function": "mint(address)",
      "arguments": [
        "0x1D72DB7feb21bf0A3C3D094401C7c56fA10ab013"
      ],
      "transaction": {
        "from": "0x1d72db7feb21bf0a3c3d094401c7c56fa10ab013",
        "to": "0x0cac4e3004c452134ed59db4bcb63128d2140ace",
        "gas": "0x1913e",
        "value": "0x0",
        "input": "0x6a6278420000000000000000000000001d72db7feb21bf0a3c3d094401c7c56fa10ab013",
        "nonce": "0x21",
        "chainId": "0xdede"
      },
      "additionalContracts": [],
      "isFixedGasLimit": false
    },
    {
      "hash": "0xd13f04e91d2b93b2c740be4228402ac9cfadee52c4e5236b0df9b2c7fb8751d8",
      "transactionType": "CALL",
      "contractName": null,
      "contractAddress": "0x0cac4e3004c452134ed59db4bcb63128d2140ace",
      "function": "mint(address)",
      "arguments": [
        "0x1D72DB7feb21bf0A3C3D094401C7c56fA10ab013"
      ],
      "transaction": {
        "from": "0x1d72db7feb21bf0a3c3d094401c7c56fa10ab013",
        "to": "0x0cac4e3004c452134ed59db4bcb63128d2140ace",
        "gas": "0x14728",
        "value": "0x0",
        "input": "0x6a6278420000000000000000000000001d72db7feb21bf0a3c3d094401c7c56fa10ab013",
        "nonce": "0x22",
        "chainId": "0xdede"
      },
      "additionalContracts": [],
      "isFixedGasLimit": false
    },
    {
      "hash": "0x87ae860d21581d07185571d550848bf3b501ec88823503823ea03baeba52bc61",
      "transactionType": "CALL",
      "contractName": null,
      "contractAddress": "0x0cac4e3004c452134ed59db4bcb63128d2140ace",
      "function": "mint(address)",
      "arguments": [
        "0x1D72DB7feb21bf0A3C3D094401C7c56fA10ab013"
      ],
      "transaction": {
        "from": "0x1d72db7feb21bf0a3c3d094401c7c56fa10ab013",
        "to": "0x0cac4e3004c452134ed59db4bcb63128d2140ace",
        "gas": "0x14728",
        "value": "0x0",
        "input": "0x6a6278420000000000000000000000001d72db7feb21bf0a3c3d094401c7c56fa10ab013",
        "nonce": "0x23",
        "chainId": "0xdede"
      },
      "additionalContracts": [],
      "isFixedGasLimit": false
    }
  ],
  "receipts": [
    {
      "status": "0x1",
      "cumulativeGasUsed": "0x12d92",
      "logs": [
        {
          "address": "0x0cac4e3004c452134ed59db4bcb63128d2140ace",
          "topics": [
            "0xddf252ad1be2c89b69c2b068fc378daa952ba7f163c4a11628f55a4df523b3ef",
            "0x0000000000000000000000000000000000000000000000000000000000000000",
            "0x0000000000000000000000001d72db7feb21bf0a3c3d094401c7c56fa10ab013",
            "0x0000000000000000000000000000000000000000000000000000000000000003"
          ],
          "data": "0x",
          "blockHash": "0x017b062505e3e426d14cdea8a5e4ad331c5536050b47df678280da7ac1ed03d8",
          "blockNumber": "0x3625e5a",
          "transactionHash": "0xbb795c1cee020903cf04e72b59431ab0e3864fee6183f9bbc1efb518d8f17b38",
          "transactionIndex": "0x0",
          "logIndex": "0x0",
          "removed": false
        }
      ],
      "logsBloom": "0x00000000000000000008000000000000000000000000000000000000000000000000000000000000000000000000000000000000020000000000000000000000000000000000000000000008000000000000000000000000000000000000000000000000020000000000000000000800000000000000000000000010000000000000000000000000000000000000000000000000000000002000000000000000000000000000000000000000000200000000000000800000000000000000400000000002000000002000000000000000000000000000000000000800000020000000000000000400000000000000000000000000000000000000000000000000",
      "type": "0x2",
      "transactionHash": "0xbb795c1cee020903cf04e72b59431ab0e3864fee6183f9bbc1efb518d8f17b38",
      "transactionIndex": "0x0",
      "blockHash": "0x017b062505e3e426d14cdea8a5e4ad331c5536050b47df678280da7ac1ed03d8",
      "blockNumber": "0x3625e5a",
      "gasUsed": "0x12d92",
      "effectiveGasPrice": "0x3b9aca01",
      "from": "0x1d72db7feb21bf0a3c3d094401c7c56fa10ab013",
      "to": "0x0cac4e3004c452134ed59db4bcb63128d2140ace",
      "contractAddress": null
    },
    {
      "status": "0x1",
      "cumulativeGasUsed": "0xea0b",
      "logs": [
        {
          "address": "0x0cac4e3004c452134ed59db4bcb63128d2140ace",
          "topics": [
            "0xddf252ad1be2c89b69c2b068fc378daa952ba7f163c4a11628f55a4df523b3ef",
            "0x0000000000000000000000000000000000000000000000000000000000000000",
            "0x0000000000000000000000001d72db7feb21bf0a3c3d094401c7c56fa10ab013",
            "0x0000000000000000000000000000000000000000000000000000000000000004"
          ],
          "data": "0x",
          "blockHash": "0x030cb3efeae4e9c1dd2b92b11ad5359466f6130a8170efe913d2f4268ec15adc",
          "blockNumber": "0x3625e5d",
          "transactionHash": "0xd13f04e91d2b93b2c740be4228402ac9cfadee52c4e5236b0df9b2c7fb8751d8",
          "transactionIndex": "0x0",
          "logIndex": "0x0",
          "removed": false
        }
      ],
      "logsBloom": "0x00000000000000000008000000000000000000000000000000000000000000000000000000000000000000000000000000000000000000000000000000000000000000000000000000000008000000000000000000000000000000000000000008000000020000000000000000000800000000000000000000000010000000000000000000000000000000000000000000000000000000002000000000000000000000000000000000000000000200000000000000000000002000000000000000000002000000002000000000000000000000008000000000000800000020000000000000000400000000000000000000000000000000000000000000000000",
      "type": "0x2",
      "transactionHash": "0xd13f04e91d2b93b2c740be4228402ac9cfadee52c4e5236b0df9b2c7fb8751d8",
      "transactionIndex": "0x0",
      "blockHash": "0x030cb3efeae4e9c1dd2b92b11ad5359466f6130a8170efe913d2f4268ec15adc",
      "blockNumber": "0x3625e5d",
      "gasUsed": "0xea0b",
      "effectiveGasPrice": "0x3b9aca01",
      "from": "0x1d72db7feb21bf0a3c3d094401c7c56fa10ab013",
      "to": "0x0cac4e3004c452134ed59db4bcb63128d2140ace",
      "contractAddress": null
    },
    {
      "status": "0x1",
      "cumulativeGasUsed": "0x1d416",
      "logs": [
        {
          "address": "0x0cac4e3004c452134ed59db4bcb63128d2140ace",
          "topics": [
            "0xddf252ad1be2c89b69c2b068fc378daa952ba7f163c4a11628f55a4df523b3ef",
            "0x0000000000000000000000000000000000000000000000000000000000000000",
            "0x0000000000000000000000001d72db7feb21bf0a3c3d094401c7c56fa10ab013",
            "0x0000000000000000000000000000000000000000000000000000000000000005"
          ],
          "data": "0x",
          "blockHash": "0x030cb3efeae4e9c1dd2b92b11ad5359466f6130a8170efe913d2f4268ec15adc",
          "blockNumber": "0x3625e5d",
          "transactionHash": "0x87ae860d21581d07185571d550848bf3b501ec88823503823ea03baeba52bc61",
          "transactionIndex": "0x1",
          "logIndex": "0x1",
          "removed": false
        }
      ],
      "logsBloom": "0x00000000000000000008000000000000000000000000000000000000000000000000000000000000000000000000000000000000000000000000000000000000000010000000000000000008000000000000000000000000000000000000000000000000020000000000000000000800000000000000000000000010000000000000000000000000000000000000001000000800000000002000000000000000000000000000000000000000000200000000000000000000000000000000000000000002000000002000000000000000000000000000000000000800000020000000000000000400000000000000000000000000000000000000000000000000",
      "type": "0x2",
      "transactionHash": "0x87ae860d21581d07185571d550848bf3b501ec88823503823ea03baeba52bc61",
      "transactionIndex": "0x1",
      "blockHash": "0x030cb3efeae4e9c1dd2b92b11ad5359466f6130a8170efe913d2f4268ec15adc",
      "blockNumber": "0x3625e5d",
      "gasUsed": "0xea0b",
      "effectiveGasPrice": "0x3b9aca01",
      "from": "0x1d72db7feb21bf0a3c3d094401c7c56fa10ab013",
      "to": "0x0cac4e3004c452134ed59db4bcb63128d2140ace",
      "contractAddress": null
    }
  ],
  "libraries": [],
  "pending": [],
  "returns": {},
  "timestamp": 1754360041,
  "chain": 57054,
  "commit": "1358265"
}